:1000000045C000004BC0000049C0000047C00000D0
:1000100045C0000043C0000041C000003FC00000D8
:100020003DC000003BC0000039C0000037C00000E8
:1000300035C0000033C0000031C000002FC00000F8
:100040002DC000002BC0000029C0000055C00000DA
:1000500025C0000023C0000021C000001FC0000018
:100060001DC000001BC0000019C0000017C0000028
:1000700015C0000013C0000011C000000FC0000038
:100080000DC000000BC0000009C0000011241FBEFD
:10009000CFEFD0E4DEBFCDBF02D04FC0B1CF8AB129
:1000A0008FEF8AB9E0E8F0E080818A6F8083E1E831
:1000B000F0E080818A618083E6E8F0E08FE19EE4F1
:1000C00091838083808191818857954020813181FF
:1000D00020813181909389008093880090938B00D8
:1000E00080938A00789490938900809388009093FD
:1000F0008B0080938A00FFCF1F920F920FB60F9252
:1001000011240BB60F922F938F939F93EF93FF932E
:100110002EB5E8E8F0E080819181820F911D9183F6
:100120008083FF91EF919F918F912F910F900BBE44
:0E0130000F900FBE0F901F901895F894FFCF00
:00000001FF
