:1000000045C0000060C000005EC00000E0C000000D
:100010005AC0000058C0000056C0000054C0000084
:1000200052C0000050C000004EC000004CC0000094
:100030004AC0000048C0000046C0000044C00000A4
:1000400042C0000040C000003EC000003CC00000B4
:100050003AC0000038C0000036C0000034C00000C4
:1000600032C0000030C000002EC000002CC00000D4
:100070002AC0000028C0000026C0000024C00000E4
:1000800022C0000020C000001EC0000011241FBEBE
:10009000CFEFD0E4DEBFCDBF11E0A0E0B1E0EEE6EF
:1000A000F2E000E00BBF02C007900D92A230B10752
:1000B000D9F721E0A2E0B1E001C01D92AF30B20754
:1000C000E1F79BD0D2C09CCF80E484B98CBD089569
:1000D0008EBD0DB407FEFDCF8EB5089580E0F8DF2C
:1000E000809302018EEE82B980E0F2DF80930101FD
:1000F00090910201892780930001EACF08958AB187
:100100008FEF8AB9E0E8F0E080818A6F8083E1E8D0
:10011000F0E080818A618083E6E8F0E08FE19EE490
:1001200091838083808191818857954090930E01BF
:1001300080930D01808191818A5B944090930801A6
:1001400080930701808191818257964090930401AA
:100150008093030180819181845B95409093060197
:100160008093050180819181835C954090930C017F
:1001700080930B01808191818654954090930A0170
:10018000809309010895992787FD90959C01220F7E
:10019000331F820F931F28EA38E4A901481B590B2B
:1001A00050938900409388000895992787FD909582
:1001B0009C01220F331F820F931F28EA38E4A90104
:1001C000481B590B50938B0040938A0008951F924F
:1001D0000F920FB60F92112480910D0190910E0194
:1001E000909389008093880080910D0190910E0179
:1001F00090938B0080938A00FFCFE9E6F0E0808146
:1002000080638083EA9AE29A78945EDF78DF8FEFEA
:1002100081B98BEB82B980910D0190910E01909381
:1002200089008093880080910D0190910E01909338
:100230008B0080938A0090E0C1E008C08EEE48DF1A
:100240009C2F8A3A19F090E001C090E09923B1F315
:1002500045DF80E03DDF8636C1F78091020193DF04
:0E02600080910101A2DF90E0F1CFF894FFCF72
:02026E0022115B
:00000001FF
