S00F00005350492D6465762E73726563BD
S113000045C0000060C000005EC000002BC10000BD
S11300105AC0000058C0000056C0000054C0000080
S113002052C0000050C000004EC000004CC0000090
S11300304AC0000048C0000046C0000044C00000A0
S113004042C0000040C000003EC000003CC00000B0
S11300503AC0000038C0000036C0000034C00000C0
S113006032C0000030C000002EC000002CC00000D0
S11300702AC0000028C0000026C0000024C00000E0
S113008022C0000020C00000C1C0000011241FBE17
S1130090CFEFD0E4DEBFCDBF11E0A0E0B1E0E0E0FF
S11300A0F5E000E00BBF02C007900D92A230B1074B
S11300B0D9F721E0A2E0B1E001C01D92AF30B20750
S11300C0E1F7DAD01BC29CCF80E484B98CBD0895DB
S11300D08EBD0DB407FEFDCF8EB5089580E0F8DF28
S11300E0809302018EEE82B980E0F2DF80930101F9
S11300F090910201892780930001EACF08958AB183
S11301008FEF8AB9E0E8F0E08081826F8083E1E8D4
S1130110F0E0808189618083E6E8F0E080E29EE49B
S11301209183808380819181825D954090930601C3
S11301308093050180E090E0A0E8BFE3809309018B
S113014090930A01A0930B01B0930C0184E090E01A
S1130150909308018093070180819181865995408D
S113016090930401809303010895E4E6F0E0808114
S11301708E7F80831092900082E08093910081E0D2
S1130180809371000895823E0CF482EE682F8F31C3
S11301900CF06EE1161614F46C5E07C066232CF4A2
S11301A0643914F0645101C060E8772767FD7095E5
S11301B0872F972FB4D02091090130910A014091E3
S11301C00B0150910C010FD17CD02091050130918D
S11301D00601C901861B970B9093890080938800C0
S11301E008952091070130910801682F6203A0014E
S11301F0639F500D11248091030190910401841B8D
S1130200950B90938B0080938A0008951F920F9210
S11302100FB60F9211240BB60F922F933F934F9367
S11302205F936F937F938F939F93AF93BF93EF935A
S1130230FF9380E0A8DF80E0D4DF81EF82B9FF91F3
S1130240EF91BF91AF919F918F917F916F915F914A
S11302504F913F912F910F900BBE0F900FBE0F90B7
S11302601F9018951F920F920FB60F92112480E0E1
S11302708ADF80E0B6DFFFCFE9E6F0E080818063CB
S11302808083EA9AE29A20DF3ADF8FEF81B96DDF4B
S113029078948BEB82B980E076DF80E0A2DFCFEF49
S11302A0C2B98EEE15DF8A3AE1F718DF80E010DF7D
S11302B08636B1F78091020166DF8091010191DFFA
S11302C0EFCF70D088F09F5790F0B92F9927B7518E
S11302D0A0F0D1F0660F771F881F991F1AF0BA9506
S11302E0C9F712C0B13081F077D0B1E0089574C07D
S11302F0672F782F8827B85F39F0B93FCCF38695FC
S113030077956795B395D9F73EF490958095709558
S113031061957F4F8F4F9F4F0895E89409C097FBD5
S11303203EF490958095709561957F4F8F4F9F4FC8
S11303309923A9F0F92F96E9BB279395F69587950C
S113034077956795B795F111F8CFFAF4BB0F11F4CF
S113035060FF1BC06F5F7F4F8F4F9F4F16C0882376
S113036011F096E911C0772321F09EE8872F762FAC
S113037005C0662371F096E8862F70E060E02AF0ED
S11303809A95660F771F881FDAF7880F96958795D9
S113039097F9089557FD9058440F551F59F05F3F42
S11303A071F04795880F97FB991F61F09F3F79F093
S11303B087950895121613061406551FF2CF469515
S11303C0F1DF08C0161617061806991FF1CF869597
S11303D07105610508940895E894BB27662777277B
S11303E0CB0197F908950BD078C069D028F06ED06E
S11303F018F0952309F05AC05FC01124EECFCADF6C
S1130400A0F3959FD1F3950F50E0551F629FF00123
S1130410729FBB27F00DB11D639FAA27F00DB11D7C
S1130420AA1F649F6627B00DA11D661F829F222705
S1130430B00DA11D621F739FB00DA11D621F839F8C
S1130440A00D611D221F749F3327A00D611D231F62
S1130450849F600D211D822F762F6A2F11249F57B0
S113046050408AF0E1F088234AF0EE0FFF1FBB1FD3
S1130470661F771F881F91505040A9F79E3F510572
S113048070F014C0AACF5F3FECF3983EDCF386957E
S113049077956795B795F795E7959F5FC1F7FE2B1D
S11304A0880F911D9695879597F9089597F99F67F9
S11304B080E870E060E008959FEF80EC08950024E8
S11304C00A941616170618060906089500240A94B5
S11304D012161306140605060895092E0394000C3B
S11304E011F4882352F0BB0F40F4BF2B11F460FFCA
S11304F004C06F5F7F4F8F4F9F4F0895F894FFCFD5
S10505002211C2
S9030000FC
