S00F00005350492D6465762E73726563BD
S113000045C0000060C000005EC000005CC000008D
S11300105AC0000058C0000056C0000054C0000080
S113002052C0000050C000004EC000004CC0000090
S11300304AC0000048C0000046C0000044C00000A0
S113004042C0000040C000003EC000003CC00000B0
S11300503AC0000038C0000036C0000034C00000C0
S113006032C0000030C000002EC000002CC00000D0
S11300702AC0000028C0000026C0000024C00000E0
S113008022C0000020C000001EC0000011241FBEBA
S1130090CFEFD0E4DEBFCDBF11E0A0E0B1E0E0E4FB
S11300A0F1E000E00BBF02C007900D92A230B1074F
S11300B0D9F721E0A2E0B1E001C01D92A330B2075C
S11300C0E1F72FD03BC09CCF80E484B98CBD089568
S11300D08EBD0DB407FEFDCF8EB50895CF93DF938B
S11300E080E0F6DFC82F8A3A11F4D0E001C0D5E5EC
S11300F08D2FEEDF809302018D2FEADF80930101C3
S113010090910201C9278C2780930001E1DF80E0F0
S1130110DFDF91E0863609F090E0892FDF91CF91FF
S11301200895D2DF8FEF81B982B9D8E8C4E4D6DF6D
S1130130882311F0C2B9FBCFD2B9F9CFF894FFCF1D
S1050140221186
S9030000FC
