S00F00005350492D6465762E73726563BD
S113000045C0000060C000005EC00000D0C0000019
S11300105AC0000058C0000056C0000054C0000080
S113002052C0000050C000004EC000004CC0000090
S11300304AC0000048C0000046C0000044C00000A0
S113004042C0000040C000003EC000003CC00000B0
S11300503AC0000038C0000036C0000034C00000C0
S113006032C0000030C000002EC000002CC00000D0
S11300702AC0000028C0000026C0000024C00000E0
S113008022C0000020C000001EC0000011241FBEBA
S1130090CFEFD0E4DEBFCDBF11E0A0E0B1E0E2E5F8
S11300A0F2E000E00BBF02C007900D92A230B1074E
S11300B0D9F721E0A2E0B1E001C01D92A731B20757
S11300C0E1F78BD0C4C09CCF80E484B98CBD089583
S11300D08EBD0DB407FEFDCF8EB5089580E0F8DF28
S11300E0809302018EEE82B980E0F2DF80930101F9
S11300F090910201892780930001EACF08958AB183
S11301008FEF8AB9E0E8F0E08081826F8083E1E8D4
S1130110F0E0808189618083E6E8F0E080E29EE49B
S11301209183808380819181825D954090931601B3
S11301308093150184E090E0909312018093110163
S113014090930A0180930901808191818659954099
S11301509093080180930701089520911101309133
S11301601201682F6203A001639F500D1124809136
S1130170150190911601841B950B9093890080932F
S1130180880008952091090130910A01682F6203C3
S1130190A001639F500D11248091070190910801E3
S11301A0841B950B90938B0080938A0008951F9273
S11301B00F920FB60F9211248091150190911601A0
S11301C090938900809388008091070190910801A1
S11301D090938B0080938A00FFCFE9E6F0E0808162
S11301E080638083EA9AE29A78946EDF88DF8FEFE7
S11301F081B98BEB82B9809115019091160190938E
S113020089008093880080918600909187008857A8
S1130210954090938B0080938A0090E0C1E008C0E1
S11302208EEE56DF9C2F8A3A19F090E001C090E0E0
S11302309923B1F353DF80E04BDF8636C1F7809119
S113024002018BDF809101019DDF90E0F1CFF894F2
S1050250FFCFDA
S1050252221173
S9030000FC
