:1000000045C0000060C000005EC0000006C10000E6
:100010005AC0000058C0000056C0000054C0000084
:1000200052C0000050C000004EC000004CC0000094
:100030004AC0000048C0000046C0000044C00000A4
:1000400042C0000040C000003EC000003CC00000B4
:100050003AC0000038C0000036C0000034C00000C4
:1000600032C0000030C000002EC000002CC00000D4
:100070002AC0000028C0000026C0000024C00000E4
:1000800022C0000020C00000B0C0000011241FBE2C
:10009000CFEFD0E4DEBFCDBF11E0A0E0B1E0E6EBF2
:1000A000F2E000E00BBF02C007900D92A230B10752
:1000B000D9F721E0A2E0B1E001C01D92AF30B20754
:1000C000E1F7C1D0F6C09CCF80E484B98CBD08951F
:1000D0008EBD0DB407FEFDCF8EB5089580E0F8DF2C
:1000E000809302018EEE82B980E0F2DF80930101FD
:1000F00090910201892780930001EACF08958AB187
:100100008FEF8AB9E0E8F0E08081826F8083E1E8D8
:10011000F0E0808189618083E6E8F0E08FE19EE491
:1001200091838083808191818857954090930E01BF
:1001300080930D01808191818A5B944090930801A6
:1001400080930701808191818257964090930401AA
:100150008093030180819181845B95409093060197
:100160008093050180819181835C954090930C017F
:1001700080930B01808191818654954090930A0170
:10018000809309010895E4E6F0E080818E7F80830A
:100190001092900082E08093910081E08093710042
:1001A0000895992787FD90959C01220F331F820F98
:1001B000931F28EA38E4A901481B590B5093890082
:1001C000409388000895992787FD90959C01220F00
:1001D000331F820F931F28EA38E4A901481B590BEB
:1001E00050938B0040938A0008951F920F920FB690
:1001F0000F9211248F939F9380910D0190910E0186
:10020000909389008093880081EF82B99F918F91AC
:100210000F900FBE0F901F9018951F920F920FB660
:100220000F92112480910D0190910E0190938900FD
:100230008093880080910D0190910E0190938B0026
:1002400080938A00FFCFE9E6F0E0808180638083BD
:10025000EA9AE29A789438DF52DF8FEF81B993DF20
:100260008BEB82B980910D0190910E0190938900E2
:100270008093880080910D0190910E0190938B00E6
:1002800080938A001FEFC4E9D0E012B98EEE20DF20
:100290008A3AE1F723DF80E01BDF8636B1F7198267
:1002A000188212B8809102017CDF809101018BDFFE
:0602B000ECCFF894FFCF33
:0202B600221113
:00000001FF
