S010000073746D5F746573742E73726563A1
S113000045C000004BC0000049C0000072C00000A1
S113001045C0000043C0000041C000003FC00000D4
S11300203DC000003BC0000039C0000037C00000E4
S113003035C0000033C0000031C000002FC00000F4
S11300402DC000002BC0000029C0000027C0000004
S113005025C0000023C0000021C000001FC0000014
S11300601DC000001BC0000019C0000017C0000024
S113007015C0000013C0000011C000000FC0000034
S11300800DC000000BC0000009C0000011241FBEF9
S1130090CFEFD0E4DEBFCDBF02D048C0B1CF8AB12C
S11300A08FEF8AB984B184B9E0E8F0E08081826A94
S11300B08083E1E8F0E0808189618083E6E8F0E014
S11300C08FE19EE491838083808191818E5B91098D
S11300D02081318120813181E9E6F0E020812063B3
S11300E02083EA9AE29A7894909389008093880016
S11300F0FFCF1F920F920FB60F9211240BB60F92DF
S11301008F939F93EF93FF93E8E8F0E080819181D0
S1130110019791838083FF91EF919F918F910F902D
S11301200BBE0F900FBE0F901F901895F894FFCF41
S9030000FC
