S010000073746D5F746573742E73726563A1
S113000045C000004BC0000049C0000074C000009F
S113001045C0000043C0000041C000003FC00000D4
S11300203DC000003BC0000039C0000037C00000E4
S113003035C0000033C0000031C000002FC00000F4
S11300402DC000002BC0000029C0000027C0000004
S113005025C0000023C0000021C000001FC0000014
S11300601DC000001BC0000019C0000017C0000024
S113007015C0000013C0000011C000000FC0000034
S11300800DC000000BC0000009C0000011241FBEF9
S1130090CFEFD0E4DEBFCDBF02D04AC0B1CF8AB12A
S11300A08FEF8AB9E0E8F0E080818A6F8083E1E82D
S11300B0F0E080818A618083E6E8F0E08FE19EE4ED
S11300C091838083808191818081918180819181DC
S11300D0E9E6F0E0808180638083EA9AE29A78948A
S11300E088EA98E490938B0080938A009093890027
S11300F080938800FFCF1F920F920FB60F921124A6
S11301000BB60F928F939F93EF93FF93E8E8F0E081
S1130110808191810A9791838083FF91EF919F91D0
S11301208F910F900BBE0F900FBE0F901F901895DC
S1070130F894FFCF6D
S9030000FC
